{
  "_format": "hh-sol-artifact-1",
  "contractName": "MyNFT",
  "sourceName": "contracts/NFT.sol",
  "abi": [
    {
      "inputs": [
        {
          "internalType": "string",
          "name": "baseURI",
          "type": "string"
        },
        {
          "internalType": "address",
          "name": "initialOwner",
          "type": "address"
        }
      ],
      "stateMutability": "nonpayable",
      "type": "constructor"
    },
    {
      "inputs": [
        {
          "internalType": "address",
          "name": "sender",
          "type": "address"
        },
        {
          "internalType": "uint256",
          "name": "tokenId",
          "type": "uint256"
        },
        {
          "internalType": "address",
          "name": "owner",
          "type": "address"
        }
      ],
      "name": "ERC721IncorrectOwner",
      "type": "error"
    },
    {
      "inputs": [
        {
          "internalType": "address",
          "name": "operator",
          "type": "address"
        },
        {
          "internalType": "uint256",
          "name": "tokenId",
          "type": "uint256"
        }
      ],
      "name": "ERC721InsufficientApproval",
      "type": "error"
    },
    {
      "inputs": [
        {
          "internalType": "address",
          "name": "approver",
          "type": "address"
        }
      ],
      "name": "ERC721InvalidApprover",
      "type": "error"
    },
    {
      "inputs": [
        {
          "internalType": "address",
          "name": "operator",
          "type": "address"
        }
      ],
      "name": "ERC721InvalidOperator",
      "type": "error"
    },
    {
      "inputs": [
        {
          "internalType": "address",
          "name": "owner",
          "type": "address"
        }
      ],
      "name": "ERC721InvalidOwner",
      "type": "error"
    },
    {
      "inputs": [
        {
          "internalType": "address",
          "name": "receiver",
          "type": "address"
        }
      ],
      "name": "ERC721InvalidReceiver",
      "type": "error"
    },
    {
      "inputs": [
        {
          "internalType": "address",
          "name": "sender",
          "type": "address"
        }
      ],
      "name": "ERC721InvalidSender",
      "type": "error"
    },
    {
      "inputs": [
        {
          "internalType": "uint256",
          "name": "tokenId",
          "type": "uint256"
        }
      ],
      "name": "ERC721NonexistentToken",
      "type": "error"
    },
    {
      "inputs": [
        {
          "internalType": "address",
          "name": "owner",
          "type": "address"
        }
      ],
      "name": "OwnableInvalidOwner",
      "type": "error"
    },
    {
      "inputs": [
        {
          "internalType": "address",
          "name": "account",
          "type": "address"
        }
      ],
      "name": "OwnableUnauthorizedAccount",
      "type": "error"
    },
    {
      "anonymous": false,
      "inputs": [
        {
          "indexed": true,
          "internalType": "address",
          "name": "owner",
          "type": "address"
        },
        {
          "indexed": true,
          "internalType": "address",
          "name": "approved",
          "type": "address"
        },
        {
          "indexed": true,
          "internalType": "uint256",
          "name": "tokenId",
          "type": "uint256"
        }
      ],
      "name": "Approval",
      "type": "event"
    },
    {
      "anonymous": false,
      "inputs": [
        {
          "indexed": true,
          "internalType": "address",
          "name": "owner",
          "type": "address"
        },
        {
          "indexed": true,
          "internalType": "address",
          "name": "operator",
          "type": "address"
        },
        {
          "indexed": false,
          "internalType": "bool",
          "name": "approved",
          "type": "bool"
        }
      ],
      "name": "ApprovalForAll",
      "type": "event"
    },
    {
      "anonymous": false,
      "inputs": [
        {
          "indexed": false,
          "internalType": "uint256",
          "name": "_fromTokenId",
          "type": "uint256"
        },
        {
          "indexed": false,
          "internalType": "uint256",
          "name": "_toTokenId",
          "type": "uint256"
        }
      ],
      "name": "BatchMetadataUpdate",
      "type": "event"
    },
    {
      "anonymous": false,
      "inputs": [
        {
          "indexed": false,
          "internalType": "uint256",
          "name": "_tokenId",
          "type": "uint256"
        }
      ],
      "name": "MetadataUpdate",
      "type": "event"
    },
    {
      "anonymous": false,
      "inputs": [
        {
          "indexed": true,
          "internalType": "address",
          "name": "previousOwner",
          "type": "address"
        },
        {
          "indexed": true,
          "internalType": "address",
          "name": "newOwner",
          "type": "address"
        }
      ],
      "name": "OwnershipTransferred",
      "type": "event"
    },
    {
      "anonymous": false,
      "inputs": [
        {
          "indexed": true,
          "internalType": "address",
          "name": "from",
          "type": "address"
        },
        {
          "indexed": true,
          "internalType": "address",
          "name": "to",
          "type": "address"
        },
        {
          "indexed": true,
          "internalType": "uint256",
          "name": "tokenId",
          "type": "uint256"
        }
      ],
      "name": "Transfer",
      "type": "event"
    },
    {
      "inputs": [
        {
          "internalType": "address",
          "name": "to",
          "type": "address"
        },
        {
          "internalType": "uint256",
          "name": "tokenId",
          "type": "uint256"
        }
      ],
      "name": "approve",
      "outputs": [],
      "stateMutability": "nonpayable",
      "type": "function"
    },
    {
      "inputs": [
        {
          "internalType": "address",
          "name": "owner",
          "type": "address"
        }
      ],
      "name": "balanceOf",
      "outputs": [
        {
          "internalType": "uint256",
          "name": "",
          "type": "uint256"
        }
      ],
      "stateMutability": "view",
      "type": "function"
    },
    {
      "inputs": [
        {
          "internalType": "uint256",
          "name": "tokenId",
          "type": "uint256"
        }
      ],
      "name": "getApproved",
      "outputs": [
        {
          "internalType": "address",
          "name": "",
          "type": "address"
        }
      ],
      "stateMutability": "view",
      "type": "function"
    },
    {
      "inputs": [
        {
          "internalType": "address",
          "name": "owner",
          "type": "address"
        },
        {
          "internalType": "address",
          "name": "operator",
          "type": "address"
        }
      ],
      "name": "isApprovedForAll",
      "outputs": [
        {
          "internalType": "bool",
          "name": "",
          "type": "bool"
        }
      ],
      "stateMutability": "view",
      "type": "function"
    },
    {
      "inputs": [
        {
          "internalType": "address",
          "name": "to",
          "type": "address"
        },
        {
          "internalType": "uint256",
          "name": "tokenId",
          "type": "uint256"
        },
        {
          "internalType": "string",
          "name": "tokenURI",
          "type": "string"
        }
      ],
      "name": "mint",
      "outputs": [],
      "stateMutability": "nonpayable",
      "type": "function"
    },
    {
      "inputs": [],
      "name": "name",
      "outputs": [
        {
          "internalType": "string",
          "name": "",
          "type": "string"
        }
      ],
      "stateMutability": "view",
      "type": "function"
    },
    {
      "inputs": [],
      "name": "owner",
      "outputs": [
        {
          "internalType": "address",
          "name": "",
          "type": "address"
        }
      ],
      "stateMutability": "view",
      "type": "function"
    },
    {
      "inputs": [
        {
          "internalType": "uint256",
          "name": "tokenId",
          "type": "uint256"
        }
      ],
      "name": "ownerOf",
      "outputs": [
        {
          "internalType": "address",
          "name": "",
          "type": "address"
        }
      ],
      "stateMutability": "view",
      "type": "function"
    },
    {
      "inputs": [],
      "name": "renounceOwnership",
      "outputs": [],
      "stateMutability": "nonpayable",
      "type": "function"
    },
    {
      "inputs": [
        {
          "internalType": "address",
          "name": "from",
          "type": "address"
        },
        {
          "internalType": "address",
          "name": "to",
          "type": "address"
        },
        {
          "internalType": "uint256",
          "name": "tokenId",
          "type": "uint256"
        }
      ],
      "name": "safeTransferFrom",
      "outputs": [],
      "stateMutability": "nonpayable",
      "type": "function"
    },
    {
      "inputs": [
        {
          "internalType": "address",
          "name": "from",
          "type": "address"
        },
        {
          "internalType": "address",
          "name": "to",
          "type": "address"
        },
        {
          "internalType": "uint256",
          "name": "tokenId",
          "type": "uint256"
        },
        {
          "internalType": "bytes",
          "name": "data",
          "type": "bytes"
        }
      ],
      "name": "safeTransferFrom",
      "outputs": [],
      "stateMutability": "nonpayable",
      "type": "function"
    },
    {
      "inputs": [
        {
          "internalType": "address",
          "name": "operator",
          "type": "address"
        },
        {
          "internalType": "bool",
          "name": "approved",
          "type": "bool"
        }
      ],
      "name": "setApprovalForAll",
      "outputs": [],
      "stateMutability": "nonpayable",
      "type": "function"
    },
    {
      "inputs": [
        {
          "internalType": "string",
          "name": "baseURI",
          "type": "string"
        }
      ],
      "name": "setBaseURI",
      "outputs": [],
      "stateMutability": "nonpayable",
      "type": "function"
    },
    {
      "inputs": [
        {
          "internalType": "bytes4",
          "name": "interfaceId",
          "type": "bytes4"
        }
      ],
      "name": "supportsInterface",
      "outputs": [
        {
          "internalType": "bool",
          "name": "",
          "type": "bool"
        }
      ],
      "stateMutability": "view",
      "type": "function"
    },
    {
      "inputs": [],
      "name": "symbol",
      "outputs": [
        {
          "internalType": "string",
          "name": "",
          "type": "string"
        }
      ],
      "stateMutability": "view",
      "type": "function"
    },
    {
      "inputs": [
        {
          "internalType": "uint256",
          "name": "tokenId",
          "type": "uint256"
        }
      ],
      "name": "tokenURI",
      "outputs": [
        {
          "internalType": "string",
          "name": "",
          "type": "string"
        }
      ],
      "stateMutability": "view",
      "type": "function"
    },
    {
      "inputs": [
        {
          "internalType": "address",
          "name": "from",
          "type": "address"
        },
        {
          "internalType": "address",
          "name": "to",
          "type": "address"
        },
        {
          "internalType": "uint256",
          "name": "tokenId",
          "type": "uint256"
        }
      ],
      "name": "transferFrom",
      "outputs": [],
      "stateMutability": "nonpayable",
      "type": "function"
    },
    {
      "inputs": [
        {
          "internalType": "address",
          "name": "newOwner",
          "type": "address"
        }
      ],
      "name": "transferOwnership",
      "outputs": [],
      "stateMutability": "nonpayable",
      "type": "function"
    }
  ],
  "bytecode": "0x608060405234801561001057600080fd5b50604051612dfb380380612dfb833981810160405281019061003291906103f3565b806040518060400160405280600581526020017f4d794e46540000000000000000000000000000000000000000000000000000008152506040518060400160405280600381526020017f4e4654000000000000000000000000000000000000000000000000000000000081525081600090816100ae9190610670565b5080600190816100be9190610670565b505050600073ffffffffffffffffffffffffffffffffffffffff168173ffffffffffffffffffffffffffffffffffffffff16036101335760006040517f1e4fbdf700000000000000000000000000000000000000000000000000000000815260040161012a9190610751565b60405180910390fd5b6101428161015a60201b60201c565b5081600890816101529190610670565b50505061076c565b6000600760009054906101000a900473ffffffffffffffffffffffffffffffffffffffff16905081600760006101000a81548173ffffffffffffffffffffffffffffffffffffffff021916908373ffffffffffffffffffffffffffffffffffffffff1602179055508173ffffffffffffffffffffffffffffffffffffffff168173ffffffffffffffffffffffffffffffffffffffff167f8be0079c531659141344cd1fd0a4f28419497f9722a3daafe3b4186f6b6457e060405160405180910390a35050565b6000604051905090565b600080fd5b600080fd5b600080fd5b600080fd5b6000601f19601f8301169050919050565b7f4e487b7100000000000000000000000000000000000000000000000000000000600052604160045260246000fd5b6102878261023e565b810181811067ffffffffffffffff821117156102a6576102a561024f565b5b80604052505050565b60006102b9610220565b90506102c5828261027e565b919050565b600067ffffffffffffffff8211156102e5576102e461024f565b5b6102ee8261023e565b9050602081019050919050565b60005b838110156103195780820151818401526020810190506102fe565b60008484015250505050565b6000610338610333846102ca565b6102af565b90508281526020810184848401111561035457610353610239565b5b61035f8482856102fb565b509392505050565b600082601f83011261037c5761037b610234565b5b815161038c848260208601610325565b91505092915050565b600073ffffffffffffffffffffffffffffffffffffffff82169050919050565b60006103c082610395565b9050919050565b6103d0816103b5565b81146103db57600080fd5b50565b6000815190506103ed816103c7565b92915050565b6000806040838503121561040a5761040961022a565b5b600083015167ffffffffffffffff8111156104285761042761022f565b5b61043485828601610367565b9250506020610445858286016103de565b9150509250929050565b600081519050919050565b7f4e487b7100000000000000000000000000000000000000000000000000000000600052602260045260246000fd5b600060028204905060018216806104a157607f821691505b6020821081036104b4576104b361045a565b5b50919050565b60008190508160005260206000209050919050565b60006020601f8301049050919050565b600082821b905092915050565b60006008830261051c7fffffffffffffffffffffffffffffffffffffffffffffffffffffffffffffffff826104df565b61052686836104df565b95508019841693508086168417925050509392505050565b6000819050919050565b6000819050919050565b600061056d6105686105638461053e565b610548565b61053e565b9050919050565b6000819050919050565b61058783610552565b61059b61059382610574565b8484546104ec565b825550505050565b600090565b6105b06105a3565b6105bb81848461057e565b505050565b5b818110156105df576105d46000826105a8565b6001810190506105c1565b5050565b601f821115610624576105f5816104ba565b6105fe846104cf565b8101602085101561060d578190505b610621610619856104cf565b8301826105c0565b50505b505050565b600082821c905092915050565b600061064760001984600802610629565b1980831691505092915050565b60006106608383610636565b9150826002028217905092915050565b6106798261044f565b67ffffffffffffffff8111156106925761069161024f565b5b61069c8254610489565b6106a78282856105e3565b600060209050601f8311600181146106da57600084156106c8578287015190505b6106d28582610654565b86555061073a565b601f1984166106e8866104ba565b60005b82811015610710578489015182556001820191506020850194506020810190506106eb565b8683101561072d5784890151610729601f891682610636565b8355505b6001600288020188555050505b505050505050565b61074b816103b5565b82525050565b60006020820190506107666000830184610742565b92915050565b6126808061077b6000396000f3fe608060405234801561001057600080fd5b50600436106101165760003560e01c8063715018a6116100a2578063b88d4fde11610071578063b88d4fde146102cb578063c87b56dd146102e7578063d3fc986414610317578063e985e9c514610333578063f2fde38b1461036357610116565b8063715018a6146102695780638da5cb5b1461027357806395d89b4114610291578063a22cb465146102af57610116565b806323b872dd116100e957806323b872dd146101b557806342842e0e146101d157806355f804b3146101ed5780636352211e1461020957806370a082311461023957610116565b806301ffc9a71461011b57806306fdde031461014b578063081812fc14610169578063095ea7b314610199575b600080fd5b61013560048036038101906101309190611b1c565b61037f565b6040516101429190611b64565b60405180910390f35b6101536103e0565b6040516101609190611c0f565b60405180910390f35b610183600480360381019061017e9190611c67565b610472565b6040516101909190611cd5565b60405180910390f35b6101b360048036038101906101ae9190611d1c565b61048e565b005b6101cf60048036038101906101ca9190611d5c565b6104a4565b005b6101eb60048036038101906101e69190611d5c565b6105a6565b005b61020760048036038101906102029190611ee4565b6105c6565b005b610223600480360381019061021e9190611c67565b6105e1565b6040516102309190611cd5565b60405180910390f35b610253600480360381019061024e9190611f2d565b6105f3565b6040516102609190611f69565b60405180910390f35b6102716106ad565b005b61027b6106c1565b6040516102889190611cd5565b60405180910390f35b6102996106eb565b6040516102a69190611c0f565b60405180910390f35b6102c960048036038101906102c49190611fb0565b61077d565b005b6102e560048036038101906102e09190612091565b610793565b005b61030160048036038101906102fc9190611c67565b6107b8565b60405161030e9190611c0f565b60405180910390f35b610331600480360381019061032c9190612114565b6108cb565b005b61034d60048036038101906103489190612183565b6108ec565b60405161035a9190611b64565b60405180910390f35b61037d60048036038101906103789190611f2d565b610980565b005b6000634906490660e01b7bffffffffffffffffffffffffffffffffffffffffffffffffffffffff1916827bffffffffffffffffffffffffffffffffffffffffffffffffffffffff191614806103d957506103d882610a06565b5b9050919050565b6060600080546103ef906121f2565b80601f016020809104026020016040519081016040528092919081815260200182805461041b906121f2565b80156104685780601f1061043d57610100808354040283529160200191610468565b820191906000526020600020905b81548152906001019060200180831161044b57829003601f168201915b5050505050905090565b600061047d82610ae8565b5061048782610b70565b9050919050565b6104a0828261049b610bad565b610bb5565b5050565b600073ffffffffffffffffffffffffffffffffffffffff168273ffffffffffffffffffffffffffffffffffffffff16036105165760006040517f64a0ae9200000000000000000000000000000000000000000000000000000000815260040161050d9190611cd5565b60405180910390fd5b600061052a8383610525610bad565b610bc7565b90508373ffffffffffffffffffffffffffffffffffffffff168173ffffffffffffffffffffffffffffffffffffffff16146105a0578382826040517f64283d7b00000000000000000000000000000000000000000000000000000000815260040161059793929190612223565b60405180910390fd5b50505050565b6105c183838360405180602001604052806000815250610793565b505050565b6105ce610de1565b80600890816105dd9190612406565b5050565b60006105ec82610ae8565b9050919050565b60008073ffffffffffffffffffffffffffffffffffffffff168273ffffffffffffffffffffffffffffffffffffffff16036106665760006040517f89c62b6400000000000000000000000000000000000000000000000000000000815260040161065d9190611cd5565b60405180910390fd5b600360008373ffffffffffffffffffffffffffffffffffffffff1673ffffffffffffffffffffffffffffffffffffffff168152602001908152602001600020549050919050565b6106b5610de1565b6106bf6000610e68565b565b6000600760009054906101000a900473ffffffffffffffffffffffffffffffffffffffff16905090565b6060600180546106fa906121f2565b80601f0160208091040260200160405190810160405280929190818152602001828054610726906121f2565b80156107735780601f1061074857610100808354040283529160200191610773565b820191906000526020600020905b81548152906001019060200180831161075657829003601f168201915b5050505050905090565b61078f610788610bad565b8383610f2e565b5050565b61079e8484846104a4565b6107b26107a9610bad565b8585858561109d565b50505050565b60606107c382610ae8565b5060006006600084815260200190815260200160002080546107e4906121f2565b80601f0160208091040260200160405190810160405280929190818152602001828054610810906121f2565b801561085d5780601f106108325761010080835404028352916020019161085d565b820191906000526020600020905b81548152906001019060200180831161084057829003601f168201915b50505050509050600061086e61124e565b905060008151036108835781925050506108c6565b6000825111156108b85780826040516020016108a0929190612514565b604051602081830303815290604052925050506108c6565b6108c1846112e0565b925050505b919050565b6108d3610de1565b6108dd8383611349565b6108e78282611442565b505050565b6000600560008473ffffffffffffffffffffffffffffffffffffffff1673ffffffffffffffffffffffffffffffffffffffff16815260200190815260200160002060008373ffffffffffffffffffffffffffffffffffffffff1673ffffffffffffffffffffffffffffffffffffffff16815260200190815260200160002060009054906101000a900460ff16905092915050565b610988610de1565b600073ffffffffffffffffffffffffffffffffffffffff168173ffffffffffffffffffffffffffffffffffffffff16036109fa5760006040517f1e4fbdf70000000000000000000000000000000000000000000000000000000081526004016109f19190611cd5565b60405180910390fd5b610a0381610e68565b50565b60007f80ac58cd000000000000000000000000000000000000000000000000000000007bffffffffffffffffffffffffffffffffffffffffffffffffffffffff1916827bffffffffffffffffffffffffffffffffffffffffffffffffffffffff19161480610ad157507f5b5e139f000000000000000000000000000000000000000000000000000000007bffffffffffffffffffffffffffffffffffffffffffffffffffffffff1916827bffffffffffffffffffffffffffffffffffffffffffffffffffffffff1916145b80610ae15750610ae08261149e565b5b9050919050565b600080610af483611508565b9050600073ffffffffffffffffffffffffffffffffffffffff168173ffffffffffffffffffffffffffffffffffffffff1603610b6757826040517f7e273289000000000000000000000000000000000000000000000000000000008152600401610b5e9190611f69565b60405180910390fd5b80915050919050565b60006004600083815260200190815260200160002060009054906101000a900473ffffffffffffffffffffffffffffffffffffffff169050919050565b600033905090565b610bc28383836001611545565b505050565b600080610bd384611508565b9050600073ffffffffffffffffffffffffffffffffffffffff168373ffffffffffffffffffffffffffffffffffffffff1614610c1557610c1481848661170a565b5b600073ffffffffffffffffffffffffffffffffffffffff168173ffffffffffffffffffffffffffffffffffffffff1614610ca657610c57600085600080611545565b6001600360008373ffffffffffffffffffffffffffffffffffffffff1673ffffffffffffffffffffffffffffffffffffffff168152602001908152602001600020600082825403925050819055505b600073ffffffffffffffffffffffffffffffffffffffff168573ffffffffffffffffffffffffffffffffffffffff1614610d29576001600360008773ffffffffffffffffffffffffffffffffffffffff1673ffffffffffffffffffffffffffffffffffffffff168152602001908152602001600020600082825401925050819055505b846002600086815260200190815260200160002060006101000a81548173ffffffffffffffffffffffffffffffffffffffff021916908373ffffffffffffffffffffffffffffffffffffffff160217905550838573ffffffffffffffffffffffffffffffffffffffff168273ffffffffffffffffffffffffffffffffffffffff167fddf252ad1be2c89b69c2b068fc378daa952ba7f163c4a11628f55a4df523b3ef60405160405180910390a4809150509392505050565b610de9610bad565b73ffffffffffffffffffffffffffffffffffffffff16610e076106c1565b73ffffffffffffffffffffffffffffffffffffffff1614610e6657610e2a610bad565b6040517f118cdaa7000000000000000000000000000000000000000000000000000000008152600401610e5d9190611cd5565b60405180910390fd5b565b6000600760009054906101000a900473ffffffffffffffffffffffffffffffffffffffff16905081600760006101000a81548173ffffffffffffffffffffffffffffffffffffffff021916908373ffffffffffffffffffffffffffffffffffffffff1602179055508173ffffffffffffffffffffffffffffffffffffffff168173ffffffffffffffffffffffffffffffffffffffff167f8be0079c531659141344cd1fd0a4f28419497f9722a3daafe3b4186f6b6457e060405160405180910390a35050565b600073ffffffffffffffffffffffffffffffffffffffff168273ffffffffffffffffffffffffffffffffffffffff1603610f9f57816040517f5b08ba18000000000000000000000000000000000000000000000000000000008152600401610f969190611cd5565b60405180910390fd5b80600560008573ffffffffffffffffffffffffffffffffffffffff1673ffffffffffffffffffffffffffffffffffffffff16815260200190815260200160002060008473ffffffffffffffffffffffffffffffffffffffff1673ffffffffffffffffffffffffffffffffffffffff16815260200190815260200160002060006101000a81548160ff0219169083151502179055508173ffffffffffffffffffffffffffffffffffffffff168373ffffffffffffffffffffffffffffffffffffffff167f17307eab39ab6107e8899845ad3d59bd9653f200f220920489ca2b5937696c31836040516110909190611b64565b60405180910390a3505050565b60008373ffffffffffffffffffffffffffffffffffffffff163b1115611247578273ffffffffffffffffffffffffffffffffffffffff1663150b7a02868685856040518563ffffffff1660e01b81526004016110fc949392919061258d565b6020604051808303816000875af192505050801561113857506040513d601f19601f8201168201806040525081019061113591906125ee565b60015b6111bc573d8060008114611168576040519150601f19603f3d011682016040523d82523d6000602084013e61116d565b606091505b5060008151036111b457836040517f64a0ae920000000000000000000000000000000000000000000000000000000081526004016111ab9190611cd5565b60405180910390fd5b805181602001fd5b63150b7a0260e01b7bffffffffffffffffffffffffffffffffffffffffffffffffffffffff1916817bffffffffffffffffffffffffffffffffffffffffffffffffffffffff19161461124557836040517f64a0ae9200000000000000000000000000000000000000000000000000000000815260040161123c9190611cd5565b60405180910390fd5b505b5050505050565b60606008805461125d906121f2565b80601f0160208091040260200160405190810160405280929190818152602001828054611289906121f2565b80156112d65780601f106112ab576101008083540402835291602001916112d6565b820191906000526020600020905b8154815290600101906020018083116112b957829003601f168201915b5050505050905090565b60606112eb82610ae8565b5060006112f661124e565b905060008151116113165760405180602001604052806000815250611341565b80611320846117ce565b604051602001611331929190612514565b6040516020818303038152906040525b915050919050565b600073ffffffffffffffffffffffffffffffffffffffff168273ffffffffffffffffffffffffffffffffffffffff16036113bb5760006040517f64a0ae920000000000000000000000000000000000000000000000000000000081526004016113b29190611cd5565b60405180910390fd5b60006113c983836000610bc7565b9050600073ffffffffffffffffffffffffffffffffffffffff168173ffffffffffffffffffffffffffffffffffffffff161461143d5760006040517f73c6ac6e0000000000000000000000000000000000000000000000000000000081526004016114349190611cd5565b60405180910390fd5b505050565b806006600084815260200190815260200160002090816114629190612406565b507ff8e1a15aba9398e019f0b49df1a4fde98ee17ae345cb5f6b5e2c27f5033e8ce7826040516114929190611f69565b60405180910390a15050565b60007f01ffc9a7000000000000000000000000000000000000000000000000000000007bffffffffffffffffffffffffffffffffffffffffffffffffffffffff1916827bffffffffffffffffffffffffffffffffffffffffffffffffffffffff1916149050919050565b60006002600083815260200190815260200160002060009054906101000a900473ffffffffffffffffffffffffffffffffffffffff169050919050565b808061157e5750600073ffffffffffffffffffffffffffffffffffffffff168273ffffffffffffffffffffffffffffffffffffffff1614155b156116b257600061158e84610ae8565b9050600073ffffffffffffffffffffffffffffffffffffffff168373ffffffffffffffffffffffffffffffffffffffff16141580156115f957508273ffffffffffffffffffffffffffffffffffffffff168173ffffffffffffffffffffffffffffffffffffffff1614155b801561160c575061160a81846108ec565b155b1561164e57826040517fa9fbf51f0000000000000000000000000000000000000000000000000000000081526004016116459190611cd5565b60405180910390fd5b81156116b057838573ffffffffffffffffffffffffffffffffffffffff168273ffffffffffffffffffffffffffffffffffffffff167f8c5be1e5ebec7d5bd14f71427d1e84f3dd0314c0f7b2291e5b200ac8c7c3b92560405160405180910390a45b505b836004600085815260200190815260200160002060006101000a81548173ffffffffffffffffffffffffffffffffffffffff021916908373ffffffffffffffffffffffffffffffffffffffff16021790555050505050565b61171583838361189c565b6117c957600073ffffffffffffffffffffffffffffffffffffffff168373ffffffffffffffffffffffffffffffffffffffff160361178a57806040517f7e2732890000000000000000000000000000000000000000000000000000000081526004016117819190611f69565b60405180910390fd5b81816040517f177e802f0000000000000000000000000000000000000000000000000000000081526004016117c092919061261b565b60405180910390fd5b505050565b6060600060016117dd8461195d565b01905060008167ffffffffffffffff8111156117fc576117fb611db9565b5b6040519080825280601f01601f19166020018201604052801561182e5781602001600182028036833780820191505090505b509050600082602001820190505b600115611891578080600190039150507f3031323334353637383961626364656600000000000000000000000000000000600a86061a8153600a858161188557611884612644565b5b0494506000850361183c575b819350505050919050565b60008073ffffffffffffffffffffffffffffffffffffffff168373ffffffffffffffffffffffffffffffffffffffff161415801561195457508273ffffffffffffffffffffffffffffffffffffffff168473ffffffffffffffffffffffffffffffffffffffff161480611915575061191484846108ec565b5b8061195357508273ffffffffffffffffffffffffffffffffffffffff1661193b83610b70565b73ffffffffffffffffffffffffffffffffffffffff16145b5b90509392505050565b600080600090507a184f03e93ff9f4daa797ed6e38ed64bf6a1f01000000000000000083106119bb577a184f03e93ff9f4daa797ed6e38ed64bf6a1f01000000000000000083816119b1576119b0612644565b5b0492506040810190505b6d04ee2d6d415b85acef810000000083106119f8576d04ee2d6d415b85acef810000000083816119ee576119ed612644565b5b0492506020810190505b662386f26fc100008310611a2757662386f26fc100008381611a1d57611a1c612644565b5b0492506010810190505b6305f5e1008310611a50576305f5e1008381611a4657611a45612644565b5b0492506008810190505b6127108310611a75576127108381611a6b57611a6a612644565b5b0492506004810190505b60648310611a985760648381611a8e57611a8d612644565b5b0492506002810190505b600a8310611aa7576001810190505b80915050919050565b6000604051905090565b600080fd5b600080fd5b60007fffffffff0000000000000000000000000000000000000000000000000000000082169050919050565b611af981611ac4565b8114611b0457600080fd5b50565b600081359050611b1681611af0565b92915050565b600060208284031215611b3257611b31611aba565b5b6000611b4084828501611b07565b91505092915050565b60008115159050919050565b611b5e81611b49565b82525050565b6000602082019050611b796000830184611b55565b92915050565b600081519050919050565b600082825260208201905092915050565b60005b83811015611bb9578082015181840152602081019050611b9e565b60008484015250505050565b6000601f19601f8301169050919050565b6000611be182611b7f565b611beb8185611b8a565b9350611bfb818560208601611b9b565b611c0481611bc5565b840191505092915050565b60006020820190508181036000830152611c298184611bd6565b905092915050565b6000819050919050565b611c4481611c31565b8114611c4f57600080fd5b50565b600081359050611c6181611c3b565b92915050565b600060208284031215611c7d57611c7c611aba565b5b6000611c8b84828501611c52565b91505092915050565b600073ffffffffffffffffffffffffffffffffffffffff82169050919050565b6000611cbf82611c94565b9050919050565b611ccf81611cb4565b82525050565b6000602082019050611cea6000830184611cc6565b92915050565b611cf981611cb4565b8114611d0457600080fd5b50565b600081359050611d1681611cf0565b92915050565b60008060408385031215611d3357611d32611aba565b5b6000611d4185828601611d07565b9250506020611d5285828601611c52565b9150509250929050565b600080600060608486031215611d7557611d74611aba565b5b6000611d8386828701611d07565b9350506020611d9486828701611d07565b9250506040611da586828701611c52565b9150509250925092565b600080fd5b600080fd5b7f4e487b7100000000000000000000000000000000000000000000000000000000600052604160045260246000fd5b611df182611bc5565b810181811067ffffffffffffffff82111715611e1057611e0f611db9565b5b80604052505050565b6000611e23611ab0565b9050611e2f8282611de8565b919050565b600067ffffffffffffffff821115611e4f57611e4e611db9565b5b611e5882611bc5565b9050602081019050919050565b82818337600083830152505050565b6000611e87611e8284611e34565b611e19565b905082815260208101848484011115611ea357611ea2611db4565b5b611eae848285611e65565b509392505050565b600082601f830112611ecb57611eca611daf565b5b8135611edb848260208601611e74565b91505092915050565b600060208284031215611efa57611ef9611aba565b5b600082013567ffffffffffffffff811115611f1857611f17611abf565b5b611f2484828501611eb6565b91505092915050565b600060208284031215611f4357611f42611aba565b5b6000611f5184828501611d07565b91505092915050565b611f6381611c31565b82525050565b6000602082019050611f7e6000830184611f5a565b92915050565b611f8d81611b49565b8114611f9857600080fd5b50565b600081359050611faa81611f84565b92915050565b60008060408385031215611fc757611fc6611aba565b5b6000611fd585828601611d07565b9250506020611fe685828601611f9b565b9150509250929050565b600067ffffffffffffffff82111561200b5761200a611db9565b5b61201482611bc5565b9050602081019050919050565b600061203461202f84611ff0565b611e19565b9050828152602081018484840111156120505761204f611db4565b5b61205b848285611e65565b509392505050565b600082601f83011261207857612077611daf565b5b8135612088848260208601612021565b91505092915050565b600080600080608085870312156120ab576120aa611aba565b5b60006120b987828801611d07565b94505060206120ca87828801611d07565b93505060406120db87828801611c52565b925050606085013567ffffffffffffffff8111156120fc576120fb611abf565b5b61210887828801612063565b91505092959194509250565b60008060006060848603121561212d5761212c611aba565b5b600061213b86828701611d07565b935050602061214c86828701611c52565b925050604084013567ffffffffffffffff81111561216d5761216c611abf565b5b61217986828701611eb6565b9150509250925092565b6000806040838503121561219a57612199611aba565b5b60006121a885828601611d07565b92505060206121b985828601611d07565b9150509250929050565b7f4e487b7100000000000000000000000000000000000000000000000000000000600052602260045260246000fd5b6000600282049050600182168061220a57607f821691505b60208210810361221d5761221c6121c3565b5b50919050565b60006060820190506122386000830186611cc6565b6122456020830185611f5a565b6122526040830184611cc6565b949350505050565b60008190508160005260206000209050919050565b60006020601f8301049050919050565b600082821b905092915050565b6000600883026122bc7fffffffffffffffffffffffffffffffffffffffffffffffffffffffffffffffff8261227f565b6122c6868361227f565b95508019841693508086168417925050509392505050565b6000819050919050565b60006123036122fe6122f984611c31565b6122de565b611c31565b9050919050565b6000819050919050565b61231d836122e8565b6123316123298261230a565b84845461228c565b825550505050565b600090565b612346612339565b612351818484612314565b505050565b5b818110156123755761236a60008261233e565b600181019050612357565b5050565b601f8211156123ba5761238b8161225a565b6123948461226f565b810160208510156123a3578190505b6123b76123af8561226f565b830182612356565b50505b505050565b600082821c905092915050565b60006123dd600019846008026123bf565b1980831691505092915050565b60006123f683836123cc565b9150826002028217905092915050565b61240f82611b7f565b67ffffffffffffffff81111561242857612427611db9565b5b61243282546121f2565b61243d828285612379565b600060209050601f831160018114612470576000841561245e578287015190505b61246885826123ea565b8655506124d0565b601f19841661247e8661225a565b60005b828110156124a657848901518255600182019150602085019450602081019050612481565b868310156124c357848901516124bf601f8916826123cc565b8355505b6001600288020188555050505b505050505050565b600081905092915050565b60006124ee82611b7f565b6124f881856124d8565b9350612508818560208601611b9b565b80840191505092915050565b600061252082856124e3565b915061252c82846124e3565b91508190509392505050565b600081519050919050565b600082825260208201905092915050565b600061255f82612538565b6125698185612543565b9350612579818560208601611b9b565b61258281611bc5565b840191505092915050565b60006080820190506125a26000830187611cc6565b6125af6020830186611cc6565b6125bc6040830185611f5a565b81810360608301526125ce8184612554565b905095945050505050565b6000815190506125e881611af0565b92915050565b60006020828403121561260457612603611aba565b5b6000612612848285016125d9565b91505092915050565b60006040820190506126306000830185611cc6565b61263d6020830184611f5a565b9392505050565b7f4e487b7100000000000000000000000000000000000000000000000000000000600052601260045260246000fdfea164736f6c634300081c000a",
  "linkReferences": {},
  "deployedLinkReferences": {}
}